:020000040000FA
:020000001429C1
:040002000034003492
:020008002A28A4
:06000A0083169F01831222
:100010000730990083164830810083162830850008
:1000200083120230A80085008316173095008312D2
:10003000C8308B00831600308C00831200308F0094
:1000400000308E0083120030900083162830960016
:10005000322008000B184B280B19AE2883120C18FD
:10006000CD28080083120508A50008008312A51DED
:100070003D2885193D287F040800A51A4128030161
:100080000800851A45287F04080003010800A620FF
:1000900032200B1009003620031D512832200B108E
:1000A0000900831285197028851A5F2820194728AE
:1000B0008B120130A10592200B10322009000B1188
:1000C00020184728A1186C28423083168100BB30C5
:1000D000831281008B16A11421150B103220090008
:1000E0008312851E76280B1032200900851981287D
:1000F000201947288B120130A10592200B103220C5
:100100000900201847280B11A1188E2842308316A9
:100110008100BB30831281008B16A114A1150B1036
:1001200032200900A62020190800FE30A200831208
:100130008F00B330A3008E0083160C140B17F2301F
:10014000A700DA2083121014201508004630831609
:1001500081007C30A4008B160B110800A11CC02864
:10016000211DBC28A11DB8280130A105922009003D
:100170000130A105EC2009000130A1050021090092
:10018000A40BC828C3288312A0018B1210100900E9
:10019000833081000B118B1609008312051CD228B5
:1001A0000510D328051422088F0023088E0083121F
:1001B0000C1009000830A800A80BDF28E928271C2C
:1001C000E528851485158511DC2885108515851190
:1001D000DC28051505110800A62020180800FC30B1
:1001E000A20083128F001830A3008E0083160C1417
:1001F0000B176030A700DA208312101420140800B7
:10020000A620A0180800FE30A20083128F000C3038
:10021000A3008E0083160C140B17DA30A700DA2027
:0C02200083121014A014080005201529FA
:02400E00D43F9D
:00000001FF
