:020000040000FA
:02000000F928DD
:040002000034003492
:020008002A28A4
:06000A0083169F01831222
:100010000730990083164830810083162830850008
:1000200083120230A80085008316173095008312D2
:10003000C8308B00831600308C00831200308F0094
:1000400000308E0083120030900083162830960016
:10005000322008000B184B280B19AB2883120C1800
:10006000CA28080083120508A50008008312A51DF0
:100070003D2885193D287F040800A51A4128030161
:100080000800851A45287F04080003010800A32002
:1000900032200B1009003620031D512832200B108E
:1000A0000900831285197028851A5F2820194728AE
:1000B0008B120130A10592200B10322009000B1188
:1000C00020184728A1186C28423083168100BB30C5
:1000D000831281008B16A11421150B103220090008
:1000E0008312851E76280B1032200900851981287D
:1000F000201947288B120130A10592200B103220C5
:100100000900201847280B11A1188E2842308316A9
:100110008100BB30831281008B16A114A1150B1036
:1001200032200900A32020190800FE30A20083120B
:100130008F00B330A3008E0083160C140B178312AC
:100140001014201508004630831681007C30A4006E
:100150008B160B110800A11CBD28211DB928A11D5B
:10016000B5280130A105922009000130A105D72052
:1001700009000130A105E8200900A40BC528C0280A
:100180008312A0018B1210100900833081000B1123
:100190008B1609008312051CCF280510D0280514E2
:1001A00022088F0023088E0083120C100900A32060
:1001B00020180800FC30A20083128F001830A30022
:1001C0008E0083160C140B178312101420140800D1
:1001D000A320A0180800FE30A20083128F000C306C
:1001E000A3008E0083160C140B1783121014A01496
:0601F00008000520FA28BA
:02400E00D43F9D
:00000001FF
