:020000040000FA
:020000003A289C
:040002000034003492
:020008003C2892
:06000A0083169F01831222
:100010000730990083120230850083162B3085004B
:100020008316483081008316343095008312C8301F
:100030008B00831600308C00831200308F0000305C
:100040008E00831200309000831621309600050840
:10005000A500A001A017A101A401A501A601A70167
:10006000A801A901AA01AB01AC01AD01AE01AF012C
:10007000B001080005203B2883128B1D41280B1876
:100080003C2983128B1E46280B194A2983160C1C07
:10009000080083120C185E2909008316161C5628C6
:1000A000831205185628251C56282B148316961CD7
:1000B00062288312201A5D28622885186228A51CF0
:1000C0006228AB148316961E08008312851A080056
:1000D000201520140800080020186F289628831285
:1000E000101C7528A11D7C28852883122E08031951
:1000F0009628A01CA928BC288316851283160C14E8
:1001000020170230A7002121080083121010831647
:100110000C100230A70021212013831685168510AC
:1001200083162108960020100520080083122E084F
:10013000031DA9282E142016FF30AF0020148316AB
:10014000851285148316961496120230A700212179
:100150000800AE18B3282F08AC00FF30AF002E10F7
:10016000AE1436210800AE1C08002E18BC282F083B
:10017000AD002E14A014080083128B118312851475
:1001800083168516851083169514A121A001A0174A
:10019000AE018316951083162B30850083169610BA
:1001A0009616161483128B150800831200302F0642
:1001B000031DDD28FC30A700080001302F06031DB9
:1001C000E4286030A700080002302F06031DEB284A
:1001D000DA30A700080003302F06031DF228F230A2
:1001E000A700080004302F06031DF9286630A70079
:1001F000080005302F06031D0029B630A7000800AF
:1002000006302F06031D0729BE30A700080007305F
:100210002F06031D0E29E030A700080008302F0626
:10022000031D1529FE30A700080009302F06031D05
:100230001C29F630A70008000230A700FF30AF00ED
:10024000080083120930A800A80B27293329271C8E
:100250002B2985162C2985120512051605128312E5
:100260000310A70C2429051505110800201C0800FF
:10027000AF0AD520212108004D2020191222AB18E9
:1002800036212B186C20AB0183120508A5008312C0
:100290000B100900201C0900211D522921118B126D
:1002A0000B1108008312A01956295A29A1108B128C
:1002B0000B11080021108B120B110800201F9A2926
:1002C000831200303006031D6A29EE30A700212179
:1002D000B00A9A2901303006031D73290230A700A5
:1002E0002121B00A9A2902303006031D7C292C08EE
:1002F000AF003921B00A9A2903303006031D852941
:100300007A30A7002121B00A9A2904303006031D53
:100310008A296E2905303006031D99292D08AF0062
:100320003921B001A11583169601161483128B157D
:100330009A29000083127F308E008F0083120C10E8
:1003400009002C083038A900A0165B228101AD21DC
:100350002D08A900A0125B22080083128B168312BD
:100360000B100B110B138B1721152119B5298B13AA
:100370000B17080000000000000000000000000053
:10038000000000000000000000000000000000006D
:100390000000000000000000000000000800C9305C
:1003A0008312810083128B16A015A11483120B10E7
:1003B0000B110B138B17A118DB298B130B170800DC
:1003C00083123008031DFA2983127F308E008F00BC
:1003D00083160C1083168516851405148316961241
:1003E0001614831290161016201183120B178B15FA
:1003F0001014080008002908A6000F30A6050330D5
:10040000A606A608031908002908A6000F30A605AD
:10041000FC30260783120318102AFF30A6000800BC
:10042000A6010800831683128B110B100830AA0056
:10043000A901BA218312CF210310A90C851AA9178B
:10044000AA0B1B2ACF21851A2F2AA01B4C2ACF21A9
:100450008312851E4C2A2908AD00E0210800A01F48
:100460000800CF218312851E4C2AFB218312A60887
:10047000031D4C2AF030A90583120310A90CA90C06
:10048000A90CA90C2908AC00A01383169616161403
:1004900083128B150B100800201183169616161464
:1004A00083128B150B100800831621089600831207
:1004B0008B150B10080083120830A8008510CF217F
:1004C00083120310A90C8312031C672A6A2A831261
:1004D00085106C2A83128514CF21A80B602AA01ADC
:1004E000722A742A8514752A8510CF21831203106D
:0604F000A90C8514003484
:02400E00F43F7D
:00000001FF
